{
  "contractName": "ChalanICO",
  "abi": [
    {
      "inputs": [
        {
          "internalType": "contract Chalan",
          "name": "_chalan",
          "type": "address"
        }
      ],
      "payable": false,
      "stateMutability": "nonpayable",
      "type": "constructor"
    },
    {
      "constant": true,
      "inputs": [],
      "name": "chalanPrice",
      "outputs": [
        {
          "internalType": "uint256",
          "name": "",
          "type": "uint256"
        }
      ],
      "payable": false,
      "stateMutability": "view",
      "type": "function"
    },
    {
      "constant": true,
      "inputs": [],
      "name": "chalanSold",
      "outputs": [
        {
          "internalType": "uint256",
          "name": "",
          "type": "uint256"
        }
      ],
      "payable": false,
      "stateMutability": "view",
      "type": "function"
    },
    {
      "constant": false,
      "inputs": [
        {
          "internalType": "uint256",
          "name": "_value",
          "type": "uint256"
        }
      ],
      "name": "mint",
      "outputs": [
        {
          "internalType": "bool",
          "name": "",
          "type": "bool"
        }
      ],
      "payable": true,
      "stateMutability": "payable",
      "type": "function"
    },
    {
      "constant": false,
      "inputs": [],
      "name": "endSale",
      "outputs": [],
      "payable": true,
      "stateMutability": "payable",
      "type": "function"
    }
  ],
  "bytecode": "0x608060405266038d7ea4c6800060025534801561001b57600080fd5b506040516107f43803806107f48339818101604052602081101561003e57600080fd5b8101908080519060200190929190505050806000806101000a81548173ffffffffffffffffffffffffffffffffffffffff021916908373ffffffffffffffffffffffffffffffffffffffff16021790555033600160006101000a81548173ffffffffffffffffffffffffffffffffffffffff021916908373ffffffffffffffffffffffffffffffffffffffff16021790555050610714806100e06000396000f3fe60806040526004361061003f5760003560e01c806311b8f83c14610044578063380d831b1461006f5780638d36036014610079578063a0712d68146100a4575b600080fd5b34801561005057600080fd5b506100596100ea565b6040518082815260200191505060405180910390f35b6100776100f0565b005b34801561008557600080fd5b5061008e6103d4565b6040518082815260200191505060405180910390f35b6100d0600480360360208110156100ba57600080fd5b81019080803590602001909291905050506103da565b604051808215151515815260200191505060405180910390f35b60035481565b600160009054906101000a900473ffffffffffffffffffffffffffffffffffffffff1673ffffffffffffffffffffffffffffffffffffffff163373ffffffffffffffffffffffffffffffffffffffff161461014a57600080fd5b6000809054906101000a900473ffffffffffffffffffffffffffffffffffffffff1673ffffffffffffffffffffffffffffffffffffffff1663a9059cbb600160009054906101000a900473ffffffffffffffffffffffffffffffffffffffff166000809054906101000a900473ffffffffffffffffffffffffffffffffffffffff1673ffffffffffffffffffffffffffffffffffffffff166370a08231306040518263ffffffff1660e01b8152600401808273ffffffffffffffffffffffffffffffffffffffff1673ffffffffffffffffffffffffffffffffffffffff16815260200191505060206040518083038186803b15801561024857600080fd5b505afa15801561025c573d6000803e3d6000fd5b505050506040513d602081101561027257600080fd5b81019080805190602001909291905050506040518363ffffffff1660e01b8152600401808373ffffffffffffffffffffffffffffffffffffffff1673ffffffffffffffffffffffffffffffffffffffff16815260200182815260200192505050602060405180830381600087803b1580156102ec57600080fd5b505af1158015610300573d6000803e3d6000fd5b505050506040513d602081101561031657600080fd5b810190808051906020019092919050505061033057600080fd5b600160009054906101000a900473ffffffffffffffffffffffffffffffffffffffff1673ffffffffffffffffffffffffffffffffffffffff166108fc479081150290604051600060405180830381858888f19350505050158015610398573d6000803e3d6000fd5b50600160009054906101000a900473ffffffffffffffffffffffffffffffffffffffff1673ffffffffffffffffffffffffffffffffffffffff16ff5b60025481565b60006103e860025483610692565b341461043f576040517f08c379a00000000000000000000000000000000000000000000000000000000081526004018080602001828103825260218152602001806106bf6021913960400191505060405180910390fd5b816000809054906101000a900473ffffffffffffffffffffffffffffffffffffffff1673ffffffffffffffffffffffffffffffffffffffff166370a08231306040518263ffffffff1660e01b8152600401808273ffffffffffffffffffffffffffffffffffffffff1673ffffffffffffffffffffffffffffffffffffffff16815260200191505060206040518083038186803b1580156104de57600080fd5b505afa1580156104f2573d6000803e3d6000fd5b505050506040513d602081101561050857600080fd5b8101908080519060200190929190505050101561058d576040517f08c379a00000000000000000000000000000000000000000000000000000000081526004018080602001828103825260188152602001807f4e6f7420486176696e6720656e6f75676820746f6b656e73000000000000000081525060200191505060405180910390fd5b6000809054906101000a900473ffffffffffffffffffffffffffffffffffffffff1673ffffffffffffffffffffffffffffffffffffffff1663a9059cbb33846040518363ffffffff1660e01b8152600401808373ffffffffffffffffffffffffffffffffffffffff1673ffffffffffffffffffffffffffffffffffffffff16815260200182815260200192505050602060405180830381600087803b15801561063557600080fd5b505af1158015610649573d6000803e3d6000fd5b505050506040513d602081101561065f57600080fd5b810190808051906020019092919050505061067957600080fd5b8160036000828254019250508190555060019050919050565b6000808214806106af57508282838502925082816106ac57fe5b04145b6106b857600080fd5b9291505056fe506c656173652053656e6420436f727265637420416d6f756e7420696e20776569a265627a7a72315820456421d6fd077851ea83903079bb342f3e09ce8b513c019664e581de05fb3f5c64736f6c63430005100032",
  "source": "// SPDX-License-Identifier: MIT\npragma solidity >=0.4.22 <0.8.0;\n\nimport \"./Chalan.sol\";\n\ncontract ChalanICO {\n    \n    Chalan chalan;\n    address payable owner;\n    uint256 public chalanPrice = 1000000000000000;\n    uint256 public chalanSold;\n    \n    constructor(Chalan _chalan) public {\n        chalan = _chalan;\n        owner = msg.sender;\n    }\n    \n    function mint(uint256 _value) public payable returns(bool) {\n        require(msg.value == multiply(chalanPrice, _value), \"Please Send Correct Amount in wei\");\n        require(chalan.balanceOf(address(this)) >= _value, \"Not Having enough tokens\");\n        require(chalan.transfer(msg.sender, _value));\n        chalanSold += _value;\n        return true;\n    }\n    \n    function endSale() public payable {\n        require(msg.sender == owner);\n        require(chalan.transfer(owner, chalan.balanceOf(address(this))));\n        owner.transfer(address(this).balance);\n        selfdestruct(owner);\n    }\n    \n    function multiply(uint x,uint y) internal pure returns(uint z){\n        require(y == 0 || (z = x * y) / y == x);\n    }\n}",
  "sourcePath": "/home/pranil/Blockchain/erc20/contracts/ChalanICO.sol",
  "compiler": {
    "name": "solc",
    "version": "0.5.16+commit.9c3226ce.Emscripten.clang"
  },
  "schemaVersion": "3.2.4",
  "updatedAt": "2020-10-15T07:59:25.261Z",
  "networkType": "ethereum",
  "devdoc": {
    "methods": {}
  },
  "userdoc": {
    "methods": {}
  }
}